:1000000000800020E5040000691B0000691B00005F
:10001000691B0000691B0000691B0000691B0000D0
:10002000691B0000691B0000691B0000691B0000C0
:10003000691B0000691B0000691B0000691B0000B0
:10004000691B0000691B0000691B0000691B0000A0
:10005000691B0000691B0000691B0000691B000090
:10006000691B0000691B0000691B0000691B000080
:10007000691B0000691B0000691B0000691B000070
:10008000691B0000691B0000691B0000691B000060
:10009000691B0000691B0000691B0000691B000050
:1000A000691B0000691B0000691B0000691B000040
:1000B000691B0000691B0000691B0000691B000030
:1000C00080B51448144B21E05C689968DD688C4267
:1000D0000CD0002205E0A6180832D6E9008941E9D3
:1000E00002898C460831AA42F5D101E004EB050CE7
:1000F0001C696146002204E008320026002741E91D
:1001000002670831A242F7D1143301380028DBD14D
:1001100001F012FD01000000481C000048F2181315
:10012000C1F6FF731A780AB901201870704700BF32
:1001300048F20010C1F6FF7008B503682BB140F219
:100140000003C0F2000303B1984708BD80B483B038
:1001500000AF4FF000033B604FF000037B604FF0B7
:1001600000033B601BE04FF000037B6010E0396848
:100170007A6848F22413C1F6FF734FEAC1010A44BA
:100180004FF0000143F822107B6803F101037B600C
:100190007B68072BEBDD3B6803F101033B603B68A9
:1001A000072BE0DD07F10C07BD4680BC704700BFA0
:1001B00080B582B000AF62B600F0F4F900F0CEFC7A
:1001C0004FF0010000F064FD4FF000037B6000F091
:1001D00093FA0346202B3FD1FFF7B8FF4FF0000002
:1001E0004FF00E0100F0D0FC4FF0520000F026FD61
:1001F0004FF001004FF0000100F0C6FC41F6BC30AA
:10020000C0F2000000F0FAFC00F034F800F01CFB33
:100210004FF000004FF00E0100F0B6FC4FF0570019
:1002200000F00CFD4FF000004FF0000100F0ACFCBE
:1002300041F6C830C0F2000000F0E0FC00F096FB90
:1002400000F0E8F800F092FB4FF0010000F020FD14
:100250004FF000037B60BAE77A6841F288339A4234
:1002600002DD00F071FFB2E77B6803F101037B6000
:10027000ADE700BF80B584B000AF4FF000004FF095
:100280000F0100F081FC4FF0010000F0BBFE4FF0C9
:1002900000037B6075E04FF00003BB606AE000F094
:1002A0002BFA0346102B04D000F026FA0346802BCD
:1002B0000AD14FF0010000F0EBFC41F6CC30C0F267
:1002C000000000F09BFCF4E700F016FA0346202B38
:1002D0000AD14FF000004FF00B0100F055FC4FF039
:1002E000540000F0ABFC09E04FF000004FF00B01B0
:1002F00000F04AFC4FF0460000F0A0FC00F026FAA7
:100300000346FB737B6848F68902C8F6880282FBC5
:1003100003021A444FEAE2024FEAE373C3EB02021C
:100320009446B96847F67903C7F6780383FB01035F
:100330004FEAE3004FEAE173C3EB000318461146AE
:100340001A4648F22413C1F6FF734FEAC1010A446A
:1003500053F82220FB7B02EB030148F22413C1F681
:10036000FF734FEACC02024443F82210BB6803F14A
:100370000103BB60BB688B2B91DD7B6803F101033C
:100380007B607B68772B86DD00F05EFA4FF0000023
:100390004FF00F0100F0F8FB4FF0020000F032FECA
:1003A0004FF000037B602DE04FF00003BB6022E0C4
:1003B0007868BA68D7F804C0B96848F22413C1F65F
:1003C000FF734FEACC0C614453F8211048F2B51387
:1003D000C1F64E33A3FB01C34FEA531148F2241375
:1003E000C1F6FF734FEAC000024443F82210BB6815
:1003F00003F10103BB60BB68072BD9DD7B6803F108
:1004000001037B607B68072BCEDD07F11007BD463B
:1004100080BD00BF80B592B000AF4FF000033B64D9
:1004200034E04FF000037B6429E0396C7A6C48F2C9
:100430002413C1F6FF734FEAC1010A4453F8223076
:100440000A2B0CD97B6C4FEAC3023B6C134407F1B7
:10045000480213444FF0010203F8482C0BE07B6C78
:100460004FEAC3023B6C134407F1480213444FF0B8
:10047000000203F8482C7B6C03F101037B647B6C66
:10048000072BD2DD3B6C03F101033B643B6C072B74
:10049000C7DD3B4618464FF0400100F045FA00F03A
:1004A0001DFA0346012B0CD14FF000004FF0000164
:1004B00000F06AFB41F6D830C0F2000000F09EFB6D
:1004C0000BE04FF000004FF0000100F05DFB41F643
:1004D000E430C0F2000000F091FB07F14807BD4690
:1004E00080BD00BF054B1C7844F001041C70044B18
:1004F0001A78D2B2034B1A70FFF7E2FDE8460040CB
:10050000F8460040BC76004080B582B000AF4EF6A1
:100510000C53CEF2000340F20042C0F2FA521A60CD
:100520004EF61453CEF200034EF61452CEF20002F1
:10053000126842F400721A604FF000037B6014E00E
:100540007A687B684FEA830140F20003C0F200033F
:100550000B441B68194648F20003C1F6FF7343F8C9
:1005600022107B6803F101037B607B682F2BE7D9A6
:1005700047F2BC63C4F200031B78DAB24CF6245392
:10058000C1F6FF731A704EF60853CEF2000348F21C
:100590000002C1F6FF721A6001F04EF807F1080779
:1005A000BD4680BD80B500AF48F22013C1F6FF7391
:1005B0001B78002B08D100F00BF848F22013C1F68D
:1005C000FF734FF001021A7000F030F880BD00BFD9
:1005D00080B500AF4FF0000040F6C111C0F200013D
:1005E00000F0F6FD4FF000004FF0070100F020FE94
:1005F00046F28543C4F200034FF020021A7046F21F
:100600002343C4F200034FF007021A7046F233434B
:10061000C4F200034FF048021A7046F28443C4F259
:1006200000034FF001021A7080BD00BF80B582B098
:1006300000AF00F075FD0346FB7146F29243C4F231
:10064000000346F29242C4F200021278D2B242F0A3
:100650002002D2B21A7046F29543C4F2000346F269
:100660009542C4F200021278D2B242F01002D2B225
:100670001A704EF20013CEF200034FF001021A601E
:1006800046F29443C4F2000346F29442C4F20002DC
:100690001278D2B242F01002D2B21A7044F2A233EF
:1006A000C4F2000344F2A232C4F200021278D2B2C1
:1006B00042F00102D2B21A70FB79184600F034FD04
:1006C00007F10807BD4680BD80B400AF4EF20013AD
:1006D000CEF200034FF001021A60BD4680BC7047A5
:1006E00080B400AF4EF28013CEF200034FF001024F
:1006F0001A60BD4680BC704780B483B000AF46F23C
:100700006543C4F200031B78FB71FB7903F07F03A0
:10071000FB7148F21F13C1F6FF731B78DBB2002B8D
:100720000CD0FB796FEA43636FEA5363FB7148F2C5
:100730001F13C1F6FF734FF000021A70FB791846C1
:1007400007F10C07BD4680BC704700BF80B582B082
:1007500000AF4FF00003BB71FFF7C2FF48F21A135E
:10076000C1F6FF731B889AB248F21C13C1F6FF73DF
:100770001B889BB29A4207D148F21E13C1F6FF7341
:100780001B78DBB2002B3BD048F21A13C1F6FF7383
:100790001B889BB21A4648F22423C1F6FF739B5C68
:1007A000BB7148F21A13C1F6FF731B889BB203F1A9
:1007B00001039AB248F21A13C1F6FF731A8048F285
:1007C0001A13C1F6FF731B889AB244F6FF239A42AC
:1007D00006D948F21A13C1F6FF734FF000021A80CF
:1007E00048F21E13C1F6FF731B78DBB2002B21D039
:1007F00048F21E13C1F6FF734FF000021A701AE0A0
:1008000046F26543C4F200031B78FB71FB7903F0E9
:100810002003002B0FD046F24243C4F200031B78A2
:10082000BB71FB7903F01E03002B04D04FF00003D3
:10083000BB7100E000BFFFF747FFBB79184607F127
:100840000807BD4680BD00BF80B582B000AF00F094
:1008500067FC0346FB7146F29243C4F2000346F282
:100860009242C4F200021278D2B242F00102D2B235
:100870001A7046F29243C4F2000346F29242C4F266
:1008800000021278D2B202F0FE021A70FB7918460A
:1008900000F04AFCFFF724FF48F21A13C1F6FF7379
:1008A0004FF000021A8048F21C13C1F6FF734FF09C
:1008B00000021A8048F21E13C1F6FF734FF00002C7
:1008C0001A7048F21F13C1F6FF734FF000021A703E
:1008D000FFF7FAFE07F10807BD4680BD80B400AF00
:1008E00046F26443C4F200031B78DBB21846BD46EF
:1008F00080BC704780B483B000AF0346FB7146F202
:100900006443C4F200031B78DBB203F00403002B42
:10091000F5D146F24443C4F20003FA791A7007F1A4
:100920000C07BD4680BC704780B582B000AF7860D0
:100930000B46FB7048F22013C1F6FF731B78002BA7
:1009400010D00CE07B681B787A6802F101027A60B3
:100950001846FFF7CFFFFB7803F1FF33FB70FB78FE
:10096000002BEFD107F10807BD4680BD80B582B0EE
:1009700000AF00F0D5FB0346FB7146F29443C4F28E
:10098000000346F29442C4F200021278D2B242F05E
:100990000102D2B21A7046F29443C4F2000346F246
:1009A0009442C4F200021278D2B202F0FE021A702F
:1009B000FB79184600F0B8FB07F10807BD4680BD7B
:1009C00080B483B000AF4FF00003FB7146F2654383
:1009D000C4F200031B78BB7160E048F21C13C1F63F
:1009E000FF731B889BB21A4646F24243C4F20003CF
:1009F0001B78D9B248F22423C1F6FF7399544FF003
:100A00000103FB71FB79002B42D048F21E13C1F6A3
:100A1000FF731B78DBB2002B06D048F21F13C1F620
:100A2000FF734FF001021A7048F21C13C1F6FF73F6
:100A30001B889BB203F101039AB248F21C13C1F662
:100A4000FF731A8048F21C13C1F6FF731B889AB219
:100A500044F6FF239A4206D948F21C13C1F6FF73ED
:100A60004FF000021A8048F21C13C1F6FF731B8876
:100A70009AB248F21A13C1F6FF731B889BB29A42CE
:100A800006D148F21E13C1F6FF734FF001021A702F
:100A900046F26543C4F200031B78BB71BB7903F0D7
:100AA0002003002B99D107F10C07BD4680BC70478D
:100AB00080B500AF4FF0280000F052FB4FF003006C
:100AC00000F05AFA4FF0050000F04AFB4FF0030027
:100AD00000F052FA4FF00F0000F042FB4FF003001D
:100AE00000F04AFA4FF0010000F03AFB4FF002002C
:100AF00000F042FA4FF0050000F032FB4FF0060024
:100B000000F0C6F84FF00E0000F0C2F84FF02C00D5
:100B100000F0BEF84FF0080000F0BAF84FF0010006
:100B200000F0B6F84FF00C0000F0B2F84FF0030000
:100B300000F0AEF84FF0050000F012FB80BD00BFE2
:100B400080B500AF4FF00C0000F0A2F848F222137D
:100B5000C1F6FF734FF001021A7080BD80B500AF7F
:100B600048F22313C1F6FF731B78002B08D1FFF75F
:100B70009FFF48F22313C1F6FF734FF001021A7072
:100B8000FFF7DEFF80BD00BF80B582B000AF024638
:100B90000B46FA71BB71FB79032B2AD801A252F8DC
:100BA00023F000BFB50B0000C50B0000D50B000003
:100BB000E50B0000BB79A3F18003DBB2184600F01F
:100BC00067F816E0BB79A3F14003DBB2184600F0EA
:100BD0005FF80EE0BB79A3F16C03DBB2184600F0BE
:100BE00057F806E0BB79A3F12C03DBB2184600F0FE
:100BF0004FF807F10807BD4680BD00BF80B584B03F
:100C000000AF78604FF00103BB737B681B78FB7308
:100C10000CE0FB7B184600F01FF8BA7B7B6813449E
:100C20001B78FB73BB7B03F10103BB73FB7B002BC6
:100C3000EFD107F11007BD4680BD00BF80B582B07F
:100C400000AF0346FB71FB79184600F005F807F189
:100C50000807BD4680BD00BF80B584B000AF034625
:100C6000FB7100F035F8FB794FEA1313FB73FB7B44
:100C7000184600F02BF9FB7903F00F03FB73FB7BA5
:100C8000184600F023F907F11007BD4680BD00BFEC
:100C900080B584B000AF0346FB71FB794FEA1313B4
:100CA000FB7300F015F8FB7B03F00F03FB73FB7B7A
:100CB000184600F061F9FB7903F00F03FB73FB7B2F
:100CC000184600F059F907F11007BD4680BD00BF76
:100CD00080B582B000AF4FF00003FB7145F22013E6
:100CE000C4F2000345F22012C4F200021278D2B21C
:100CF00002F080021A7045F22213C4F200031B783E
:100D0000DBB223F00F03FB7145F22213C4F20003A0
:100D1000FA7942F00F02D2B21A7045F22313C4F2EC
:100D200000031B78DBB223F00F03FB7145F22313A2
:100D3000C4F20003FA791A7045F22413C4F20003D6
:100D40001B78DBB223F00F03FB7145F22413C4F2CE
:100D50000003FA791A7045F22013C4F2000345F239
:100D60002012C4F200021278D2B202F0DF021A702E
:100D700045F22013C4F2000345F22012C4F200022F
:100D80001278D2B242F04002D2B21A704FF0000094
:100D900000F00AFA45F22013C4F2000345F22012D3
:100DA000C4F200021278D2B242F01002D2B21A702B
:100DB0004FF0010000F0F8F945F22113C4F20003EE
:100DC0001B78FB7145F22013C4F2000345F2201298
:100DD000C4F200021278D2B202F0EF021A70FB796C
:100DE00003F00803FB7145F22013C4F2000345F23F
:100DF0002012C4F200021278D2B242F01002D2B233
:100E00001A704FF0010000F0CFF945F22013C4F240
:100E1000000345F22012C4F200021278D2B202F0AE
:100E2000EF021A70FB79002BB0D145F22013C4F207
:100E3000000345F22012C4F200021278D2B202F08E
:100E4000BF021A7045F22013C4F2000345F22012CB
:100E5000C4F200021278D2B202F080021A7045F297
:100E60002213C4F200031B78DBB223F00F03FB71E3
:100E700045F22213C4F20003FA791A7045F22313E3
:100E8000C4F200031B78DBB223F00F03FB7145F2C1
:100E90002313C4F20003FA7942F00F02D2B21A709F
:100EA00045F22413C4F200031B78DBB223F00F03D6
:100EB000FB7145F22413C4F20003FA7942F00F02E9
:100EC000D2B21A7007F10807BD4680BD80B582B066
:100ED00000AF0346FB71FFF7FBFE45F22013C4F29F
:100EE000000345F22012C4F200021278D2B242F09E
:100EF0002002D2B21A7045F22013C4F2000345F268
:100F00002012C4F200021278D2B202F0BF021A70AC
:100F100045F22013C4F2000345F22012C4F200028D
:100F20001278D2B202F0F0021A7045F22013C4F225
:100F3000000345F22012C4F200021278D1B2FA790D
:100F400041EA0202D2B242F01002D2B21A704FF05D
:100F5000010000F029F945F22013C4F2000345F224
:100F60002012C4F200021278D2B202F0EF021A701C
:100F700007F10807BD4680BD80B582B000AF0346CB
:100F8000FB7145F22013C4F2000345F22012C4F2B3
:100F900000021278D2B202F09F021A7045F22013BA
:100FA000C4F2000345F22012C4F200021278D2B259
:100FB00002F0F0021A7045F22013C4F2000345F269
:100FC0002012C4F200021278D1B2FA7941EA020288
:100FD000D2B242F01002D2B21A704FF0010000F00B
:100FE000E3F845F22013C4F2000345F22012C4F2E4
:100FF00000021278D2B202F0EF021A7007F108076D
:10100000BD4680BD80B586B000AF0346FB804FF083
:101010000003BB754FF00003FB752AE0B87DFA882A
:101020004CF6CD43CCF6CC43A3FB02134FEAD301DD
:101030000B464FEA83030B444FEA4303C3EB02031F
:101040009BB2DBB203F13003DAB207F1180101EB16
:10105000000303F8102CFA884CF6CD43CCF6CC43B1
:10106000A3FB02134FEAD303FB80BB7D03F1010313
:10107000BB75FB88092BD1D8B87DFA884CF6CD43D7
:10108000CCF6CC43A3FB02134FEAD3010B464FEA45
:1010900083030B444FEA4303C3EB02039BB2DBB26F
:1010A00003F13003DAB207F1180101EB000303F892
:1010B000102CBB7DFB7512E0FA7DBB7DC3EB0203F8
:1010C000BA7D07F118010A4412F8102C07F1180133
:1010D0000B4403F8082CBB7D03F1FF33BB75BB7DCC
:1010E000FF2BE9D1FB7D03F1010307F11802134443
:1010F0004FF0000203F8082C07F110031846FFF721
:101100007DFD07F11807BD4680BD00BF000000004F
:101110000230800803D000BF01380046FCD1704780
:10112000EFF3108072B6704780F31088704700BFED
:1011300080B483B000AF0346FB7101BE07F10C071A
:10114000BD4680BC704700BF80B400AF44F2F66378
:10115000C4F200034FF001021A70BD4680BC704714
:1011600080B582B000AF78600BE048F21013C1F692
:10117000FF731B681846FFF7CBFF7B68A3F500439E
:101180007B607B68B3F5004FEFD848F20813C1F6D7
:10119000FF731B687A6802FB03F31846FFF7B8FF7A
:1011A00007F10807BD4680BD80B582B000AF034699
:1011B000FB80FA8848F20C13C1F6FF731B7803FB1F
:1011C00002F31846FFF7A4FF07F10807BD4680BDEC
:1011D00080B584B000AF03463960FB714EF608530A
:1011E000CEF200031B68FB60FB791F2B03D94FF085
:1011F0000000FFF79DFFFB7903F01F0303F11003CD
:101200004FEA8302FB6813441B68BB60FB7903F061
:101210001F0303F110034FEA8302FB6813443A688B
:101220001A60BB68184607F11007BD4680BD00BFB5
:1012300080B582B000AF02460B46FA71BB71BB7934
:10124000072B03D94FF00000FFF772FFFB791F2B2C
:1012500003D94FF00000FFF76BFFFB7903F01F038A
:1012600003F1604303F56443BA794FEA4212D2B204
:101270001A7007F10807BD4680BD00BF80B485B075
:1012800000AF786039607B68BB604FF00003FB60A3
:1012900009E0BA68FB6813444FF000021A70FB685B
:1012A00003F10103FB60FA683B689A42F1D307F14E
:1012B0001407BD4680BC704780B489B000AFF860A9
:1012C000B9607A60FB687B61BB68BB614FF000036B
:1012D000FB610BE07A69FB691344B969FA690A4456
:1012E00012781A70FB6903F10103FB61FA697B68EC
:1012F0009A42EFD307F12407BD4680BC704700BF78
:1013000080B582B000AF7860396078684FF0000136
:101310003A6800F0A7FB07F10807BD4680BD00BF93
:1013200080B584B000AFF860B9607A60F868B968D9
:101330007A6800F0CFFA07F11007BD4680BD00BF04
:1013400080B487B000AF786039604FF00003FB6075
:101350004FF00003BB602CE0BB684FEA83027B6860
:1013600013441B683B613B69FB753B6923F0FF033A
:101370003B6117E0FB684FEA43023B6813441B786C
:101380001A463B691344FA684FEA42013A680A4434
:1013900052781A70FB6803F10103FB60FB7D03F1D7
:1013A000FF33FB75FB7D002BE4D1BB6803F1010328
:1013B000BB60BB68152BCFD907F11C07BD4680BCAD
:1013C000704700BF80B582B000AF44F28003C4F222
:1013D00000034FF00C021A8044F28203C4F20003AF
:1013E0004FF018021A7044F28403C4F200034FF065
:1013F00017021A8044F28603C4F200034FF0180269
:101400001A7044F20010C4F2000040F26C31C4F6CD
:1014100000014FF00402FFF783FF44F20033C4F2EF
:1014200000034FF002021A7044F20003C4F20003FA
:101430004FF008021A7044F20023C4F200034FF088
:1014400003021A7044F2A163C4F2000340F20812CE
:10145000C4F600121278D2B21A7044F22223C4F2F7
:1014600000034FF008021A8044F22023C4F2000364
:1014700041F251021A804FF00003FB714FF0190343
:101480003B6019E0FB794FEA4303DAB244F22523CB
:10149000C4F200031B78DBB203F0010342EA03034A
:1014A000DBB203F00303FB714FF07800FFF730FE6F
:1014B0003B6803F1FF333B603B68002B02D0FB79B4
:1014C000032BDFD144F20403C4F200034FF0030204
:1014D0001A7044F20503C4F200034FF001021A70BF
:1014E00044F20403C4F200034FF000021A7044F205
:1014F0000403C4F200034FF007021A7044F206031B
:10150000C4F200034FF000021A7044F20803C4F260
:1015100000034FF048021A7044F20403C4F20003BF
:101520004FF000021A7044F20103C4F200034FF0BE
:1015300002021A7044F20B03C4F200034FF00402DB
:101540001A7044F2A233C4F2000344F2A232C4F28D
:1015500000021278D2B242F00302D2B21A7044F200
:10156000A133C4F2000344F2A132C4F200021278A3
:10157000D2B242F00102D2B21A7007F10807BD469A
:1015800080BD00BF80B400AF44F2AA33C4F20003B0
:101590004FF444721A8045F26D13C4F200034FF009
:1015A00020021A7045F62003C4F200034FF01E0219
:1015B0001A7045F62403C4F200034FF01E021A709D
:1015C00045F62803C4F200034FF01E021A7045F6D8
:1015D0002C03C4F200034FF01E021A7045F60013EC
:1015E000C4F200036FF03F021A7045F60313C4F211
:1015F00000034FF00C021A7045F60813C4F2000302
:101600006FF03F021A7045F60B13C4F200034FF05F
:101610000C021A7045F60033C4F200034FF00202C8
:101620001A7045F67603C4F200034FF044021A70B4
:10163000BD4680BC704700BF80B582B000AF72B6B7
:1016400044F60003C4F200034FF000021A70FFF7E3
:10165000B9FE44F60003C4F200036FF07F021A7073
:1016600047F21003C4F200034FF000021A7047F271
:101670002003C4F200034FF000021A7045F67C0309
:10168000C4F200034FF001021A7044F2E863C4F29E
:10169000000344F2E862C4F200021278D2B242F0CF
:1016A0000102D2B21A704FF00003FB702FE0FA78FB
:1016B00013464FEA430313444FEA43031A4641F6E5
:1016C000F833C0F2000313447B607B681A785978C2
:1016D0004FEA012141EA020299784FEA014141EAC9
:1016E0000202DB784FEA036343EA02031A467B688F
:1016F00019795B794FEA032343EA01039BB2104651
:101700001946FFF7FDFDFB7803F10103FB70FB7841
:10171000062BCCD94FF0904040F25801C4F600019E
:10172000FFF70EFE45F20020C4F2000040F25C31EB
:10173000C4F600014FF00702FFF7BEFD45F2082096
:10174000C4F200004FF00701FFF798FD45F21020AA
:10175000C4F200004FF00701FFF790FD45F218209A
:10176000C4F200004FF00701FFF788FD45F220208A
:10177000C4F200004FF00701FFF780FD45F228207A
:10178000C4F200004FF00701FFF778FD45F230206A
:10179000C4F200004FF00701FFF770FD45F2602032
:1017A000C4F2000040F26431C4F600014FF00602BA
:1017B000FFF782FD45F27820C4F200004FF00701E8
:1017C000FFF75CFD45F20303C4F2010345F2030297
:1017D000C4F201021278D2B242F00202D2B21A70FE
:1017E00045F21303C4F2010345F21302C4F20102ED
:1017F0001278D2B242F00202D2B21A7044F2A0338E
:10180000C4F2000344F2A032C4F200021278D2B251
:1018100042F04002D2B21A7044F2C233C4F2000362
:1018200044F2C232C4F200021278D2B242F0100284
:10183000D2B21A7045F20010C4F2000040F2383102
:10184000C4F600014FF00A02FFF76AFD45F2C2102C
:10185000C4F2000040F24431C4F600014FF0080227
:10186000FFF72AFD45F22210C4F2000040F24C318D
:10187000C4F600014FF00802FFF752FD45F2621076
:10188000C4F2000040F25431C4F600014FF00802E7
:10189000FFF746FDFFF776FE44F2B030C4F20000D9
:1018A00044F2A031C4F200014FF00C02FFF738FD02
:1018B00044F2B033C4F2000344F2B032C4F2000286
:1018C0001278D2B202F0FD021A7007F10807BD4685
:1018D00080BD00BF032A2DE9F0070BD83AB10023E1
:1018E00011F803C000F803C001339342F8D1BDE8FA
:1018F000F007704782180C46034603E014F8011CF9
:1019000003F8011C03F003061946A4460133013411
:10191000002EF3D11CF00304634608BFC1EB020C98
:1019200068D06542C4F1040A0CEB050733464FEA60
:10193000CA0A5CF805604FEAC408551A08E057F86F
:10194000044F264604FA0AF449EA0404CC5004334E
:101950005C18032D26FA08F9A5F104050CEB030623
:10196000EDDC002302E0F15CE154013319199142EE
:10197000F9D3BCE753F8404C41F8404C53F83C4C89
:1019800041F83C4C53F8384C41F8384C53F8344C3F
:1019900041F8344C53F8304C41F8304C53F82C4C4F
:1019A00041F82C4C53F8284C41F8284C53F8244C5F
:1019B00041F8244C53F8204C41F8204C53F81C4C6F
:1019C00041F81C4C53F8184C41F8184C53F8144C7F
:1019D00041F8144C53F8104C41F8104C53F80C4C8F
:1019E00041F80C4C53F8084C41F8084C53F8044C9F
:1019F00041F8044C1C460D4640334031BCF13F0FCA
:101A0000ACF1400CB6DC21462B46541B0FE051F8DC
:101A1000105C43F8105C51F80C5C43F80C5C51F816
:101A2000085C43F8085C51F8045C43F8045C0F2C34
:101A30000D469C4601F1100103F11003A4F11004BE
:101A4000E5DCCCEB0201002303E0EC584CF803404A
:101A500004335E19032903EB0C04A1F10401F4DC47
:101A60007FE700BF032AC9B230B407D822B10023F0
:101A7000C15401339342FBD130BC704700EB020CE0
:101A8000034601E003F8011C03F003041A46013386
:101A9000002CF7D14FF00133C2EB0C0403FB01F330
:101AA0001FE042F8403C42F83C3C42F8383C42F8E7
:101AB000343C42F8303C42F82C3C42F8283C42F896
:101AC000243C42F8203C42F81C3C42F8183C42F8C6
:101AD000143C42F8103C42F80C3C42F8083C42F8F6
:101AE000043C154640323F2CA4F14004D9DC2A4680
:101AF000C5EB0C0407E042F8103C42F80C3C42F8FD
:101B0000083C42F8043C154610320F2CA4F1100496
:101B1000F1DC2A46C5EB0C0501E042F8043C144612
:101B20000432032DA5F10405F7DC01E004F8011BE4
:101B30006445FBD3A0E700BF08B500F017F80748DD
:101B400000B10068064901B109680022FEF730FBC8
:101B5000044B0BB1AFF30080FEE700BF00000000B4
:101B60000000000000000000FEE7000070B541F634
:101B7000304641F63045C0F20006C0F20005761B43
:101B8000B61006D0002455F8243001349847A642F8
:101B9000F9D841F6304541F63846C0F20005C0F2AA
:101BA0000006761B00F03EF8B61006D0002455F86B
:0C1BB000243001349847A642F9D870BDDB
:101BBC0050726F63657373696E670000202020009C
:101BCC004F766572666C6F7700000000436F6D7026
:101BDC006C657465210000004661696C65642100C8
:101BEC00035B0040035B004040400000105100408C
:101BFC001000305100403000F05100401000000047
:101C0C000140001000140140000800400140000A8F
:101C1C00004C014000020000F8B500BFF8BC08BC45
:101C2C009E4670473101000009050000F8B500BF61
:101C3C00F8BC08BC9E4670471D0100000000000067
:101C4C00601C00000080FF1F18010000104C0000F9
:041C5C000000000084
:101C60000000000000000000000000000000000074
:101C70000000000000000000000000000000000064
:101C80000000000000000000000000000000000054
:101C90000000000000000000000000000000000044
:101CA0000000000000000000000000000000000034
:101CB0000000000000000000000000000000000024
:101CC0000000000000000000000000000000000014
:101CD0000000000000000000000000000000000004
:101CE00000000000000000000000000000000000F4
:101CF00000000000000000000000000000000000E4
:101D000000000000000000000000000000000000D3
:101D100000000000000000000000000000000000C3
:101D200000000000000000000000000000000000B3
:101D300000000000000000000000000000000000A3
:101D40000000000000000000000000000000000093
:101D50000000000000000000000000000000000083
:101D60000000000000366E01C05D00001800000099
:081D70000000E02E000000005D
:04000003000004E510
:00000001FF
